:100000000C9468000C9490000C9490000C94900058
:100010000C9490000C9490000C9490000C94900020
:100020000C9490000C9490000C9490000C94900010
:100030000C9490000C9490000C9490000C94900000
:100040000C9431030C9490000C9405020C9437022C
:100050000C9490000C9490000C9490000C949000E0
:100060000C9490000C9490004279652E0048656CC9
:100070006C6F2C2041726475696E6F2E0000000059
:100080000800020100000304070000000000000057
:100090000001020408102040800102040810200121
:1000A00002040810200404040404040404020202EC
:1000B00002020203030303030300000000250028DB
:1000C000002B0000000000240027002A0000670227
:1000D00011241FBECFEFD8E0DEBFCDBF11E0A0E0FE
:1000E000B1E0ECEAF9E002C005900D92A232B1074E
:1000F000D9F721E0A2E2B1E001C01D92A83CB2070D
:10010000E1F710E0C0EDD0E004C02297FE010E94AC
:10011000D004CE3CD107C9F70E9422030C94D4042A
:100120000C94000061E08DE00E943C0426E040E079
:1001300052EC61E070E082E291E00C94A3016DE684
:1001400070E082E291E00E940F0361E08DE00E9486
:10015000750468EE73E080E090E00E949E0368E61C
:1001600070E082E291E00E940F0360E08DE00E9467
:10017000750468EE73E080E090E00C949E030895AF
:10018000FC01818D228D90E0805C9F4F821B910944
:100190008F7399270895FC01918D828D981731F006
:1001A000828DE80FF11D858D90E008958FEF9FEF10
:1001B0000895FC01918D828D981761F0828DDF0189
:1001C000A80FB11D5D968C91928D9F5F9F73928F4A
:1001D00090E008958FEF9FEF08958DE592E0892BD1
:1001E00049F08FEB90E0892B29F00E945D0281118C
:1001F0000C94BF000895FC01848DDF01A80FB11D90
:10020000A35ABF4F2C91848D90E001968F7399274C
:10021000848FA689B7892C93A089B1898C91806439
:100220008C93938D848D981306C00288F389E02DFA
:1002300080818F7D80830895CF93DF93EC01888D3B
:100240008823C9F0EA89FB89808185FD05C0A889DA
:10025000B9898C9186FD0FC00FB607FCF5CF808160
:1002600085FFF2CFA889B9898C9185FFEDCFCE01AA
:100270000E94FB00E7CFDF91CF910895CF92DF92EC
:10028000FF920F931F93CF93DF931F92CDB7DEB7EB
:100290006C0181E0D60158968C9358975B969C919F
:1002A0005B975C968C915C97981307C05096ED9184
:1002B000FC915197808185FD2EC0F601038D10E0E1
:1002C0000F5F1F4F0F731127F02EF601848DF81268
:1002D00011C00FB607FCF9CFD6015096ED91FC91F5
:1002E0005197808185FFF1CFC60169830E94FB0091
:1002F0006981EBCF838DE80FF11DE35AFF4F6083D7
:10030000D6015B960C935B975296ED91FC915397B7
:10031000808180620CC0D6015696ED91FC91579772
:1003200060835096ED91FC91519780818064808329
:1003300081E090E00F90DF91CF911F910F91FF909E
:10034000DF90CF900895BF92CF92DF92EF92FF920D
:10035000CF93DF93EC016A017B01B22EE889F98922
:1003600082E08083411581EE580761057105A1F097
:1003700060E079E08DE390E0A70196010E94AC0473
:1003800021503109410951095695479537952795CF
:10039000211580E1380798F0E889F989108260E832
:1003A00074E88EE190E0A70196010E94AC04215010
:1003B0003109410951095695479537952795EC859F
:1003C000FD853083EE85FF852083188EEC89FD89BD
:1003D000B082EA89FB89808180618083EA89FB8918
:1003E000808188608083EA89FB898081806880833E
:1003F000EA89FB8980818F7D8083DF91CF91FF9097
:10040000EF90DF90CF90BF9008951F920F920FB69C
:100410000F9211242F938F939F93EF93FF93E0916B
:100420003201F09133018081E0913801F09139017E
:1004300082FD12C0908180913B018F5F8F7320916C
:100440003C01821751F0E0913B01F0E0EE5DFE4F80
:10045000958F80933B0101C08081FF91EF919F9127
:100460008F912F910F900FBE0F901F9018951F9294
:100470000F920FB60F9211242F933F934F935F93D8
:100480006F937F938F939F93AF93BF93EF93FF935C
:1004900082E291E00E94FB00FF91EF91BF91AF914A
:1004A0009F918F917F916F915F914F913F912F918C
:1004B0000F900FBE0F901F90189582E291E00E945E
:1004C000C00021E0892B09F420E0822F08951092CA
:1004D00025011092240188EE93E0A0E0B0E0809323
:1004E000260190932701A0932801B093290184E06D
:1004F00091E0909323018093220185EC90E090930A
:100500002F0180932E0184EC90E090933101809331
:10051000300180EC90E0909333018093320181ECC4
:1005200090E0909335018093340182EC90E09093B9
:1005300037018093360186EC90E0909339018093E7
:10054000380110923B0110923C0110923D01109233
:100550003E010895CF92DF92EF92FF920F931F9387
:10056000CF93DF937C016A01EB0100E010E00C15F2
:100570001D0571F06991D701ED91FC910190F08119
:10058000E02DC7010995892B19F00F5F1F4FEFCFA1
:10059000C801DF91CF911F910F91FF90EF90DF90F5
:1005A000CF9008956115710581F0DB010D90002059
:1005B000E9F7AD0141505109461B570BDC01ED91A4
:1005C000FC910280F381E02D099480E090E0089591
:1005D000EF92FF920F931F93CF93DF938C017B01D8
:1005E000C0E0D0E0F701EC0FFD1F6491662359F0E5
:1005F000F801A081B181ED91FC91C8010995892B89
:1006000011F02196EFCFCE01DF91CF911F910F9185
:10061000FF90EF90089560E171E00C94D2020F9387
:100620001F93CF93DF93EC010E94E8028C01CE016F
:100630000E940B03800F911FDF91CF911F910F91AB
:10064000089508950E94D8030E9421030E949200F9
:10065000CDEED0E00E949F002097E1F30E94ED00D4
:10066000F9CF1F920F920FB60F9211242F933F9341
:100670008F939F93AF93BF938091C0019091C101DD
:10068000A091C201B091C3013091BF0123E0230FBB
:100690002D3720F40196A11DB11D05C026E8230FBA
:1006A0000296A11DB11D2093BF018093C0019093BC
:1006B000C101A093C201B093C3018091C401909184
:1006C000C501A091C601B091C7010196A11DB11D40
:1006D0008093C4019093C501A093C601B093C70154
:1006E000BF91AF919F918F913F912F910F900FBE2E
:1006F0000F901F9018953FB7F8948091C401909186
:10070000C501A091C601B091C70126B5A89B05C03F
:100710002F3F19F00196A11DB11D3FBF6627782F0D
:10072000892F9A2F620F711D811D911D42E0660F66
:10073000771F881F991F4A95D1F708958F929F922E
:10074000AF92BF92CF92DF92EF92FF926B017C014A
:100750000E947B034B015C01C114D104E104F1044C
:10076000F1F00E94AB040E947B03681979098A09A1
:100770009B09683E73408105910570F321E0C21A20
:10078000D108E108F10888EE880E83E0981EA11CCC
:10079000B11CC114D104E104F10429F7DDCFFF90AD
:1007A000EF90DF90CF90BF90AF909F908F90089583
:1007B000789484B5826084BD84B5816084BD85B53C
:1007C000826085BD85B5816085BDEEE6F0E0808103
:1007D00081608083E1E8F0E0108280818260808324
:1007E000808181608083E0E8F0E0808181608083A7
:1007F000E1EBF0E0808184608083E0EBF0E08081D9
:1008000081608083EAE7F0E080818460808380817A
:100810008260808380818160808380818068808322
:100820001092C1000895833081F028F4813099F04E
:100830008230A1F008958730A9F08830B9F0843073
:10084000D1F4809180008F7D03C0809180008F77EC
:1008500080938000089584B58F7702C084B58F7D22
:1008600084BD08958091B0008F7703C08091B0005F
:100870008F7D8093B0000895CF93DF9390E0FC01CB
:10088000EF56FF4F2491FC01EB55FF4F84918823D5
:1008900049F190E0880F991FFC01ED53FF4FA5919E
:1008A000B49187549F4FFC01C591D4919FB76111BA
:1008B00008C0F8948C91209582238C9388818223A0
:1008C0000AC0623051F4F8948C91322F3095832312
:1008D0008C938881822B888304C0F8948C91822B1E
:1008E0008C939FBFDF91CF9108950F931F93CF9368
:1008F000DF931F92CDB7DEB7282F30E0F901E35820
:10090000FF4F8491F901EF56FF4F1491F901EB5518
:10091000FF4F04910023C9F0882321F069830E94CE
:1009200013046981E02FF0E0EE0FFF1FE754FF4F43
:10093000A591B4919FB7F8948C91611103C0109563
:10094000812301C0812B8C939FBF0F90DF91CF91AA
:100950001F910F9108950895A1E21A2EAA1BBB1BA7
:10096000FD010DC0AA1FBB1FEE1FFF1FA217B3077B
:10097000E407F50720F0A21BB30BE40BF50B661F91
:10098000771F881F991F1A9469F760957095809555
:1009900090959B01AC01BD01CF010895EE0FFF1FA3
:0C09A0000590F491E02D0994F894FFCF2D
:1009AC00000000003E01AA02C000D900CB001C01CF
:1009BC000D0A006E616E00696E66006F7666002E21
:0209CC00000029
:00000001FF
